:020000040800F2
:1000000084F70120B9BC0008598100085581000817
:10001000518100084D81000849810008000000005E
:100020000000000000000000000000004581000802
:1000300041810008000000003D8100086D7F00083C
:10004000218D0008218D0008218D0008218D0008D8
:10005000218D0008218D0008218D0008FD800008F9
:10006000218D0008218D0008218D000855CC000845
:10007000218D0008218D0008218D0008218D0008A8
:10008000218D0008218D0008218D0008218D000898
:10009000218D0008218D0008218D0008218D000888
:1000A000218D0008218D0008218D0008218D000878
:1000B000B1800008218D0008218D0008218D0008E5
:1000C000218D0008218D0008218D0008218D000858
:1000D000218D0008218D0008218D0008218D000848
:1000E000218D0008218D0008218D0008218D000838
:1000F000218D0008218D0008218D0008ADCC00085D
:10010000218D0008218D0008218D000871800008D4
:10011000218D0008218D0008218D0008218D000807
:10012000218D0008218D0008218D0008218D0008F7
:10013000218D0008218D0008218D0008218D0008E7
:10014000218D0008218D0008218D000849CC000870
:10015000218D0008218D0008218D0008218D0008C7
:10016000218D0008218D0008218D0008218D0008B7
:10017000218D0008218D0008218D0008218D0008A7
:10018000218D0008218D00082DE980480020A5B0B0
:1001900008F0F0FA012008F0EDFAD94C022008F03E
:1001A000E9FA032008F0E6FA236BD64843F001038E
:1001B0002363626C0DF1900B42F480420123626470
:1001C0004BF8403D002559468DF854508DF8575056
:1001D00008F070FACC4ACD4B1268A3FB0202520918
:1001E000013AB2F1807F80F08085C94BC9495A60DD
:1001F000F020072281F823009D601A60626BC64BD5
:1002000042F0400262631A6842F004021A605968C0
:10021000C14AC907FBD59068C04EDFF88CA3C04C1B
:10022000DFEDC08ADFF88493DFEDBF9A9FEDBF9AC0
:100230000EF03CFFBE49BF4ABF4B46F8B4AC43F298
:10024000C82EC1F800E0BD491160002500274FF01D
:100250007E58BB4A1A60B1EE008AA6F1BC00B0EE2F
:1002600000AA46F8CC8C46F8C88C06F8C47C06F880
:10027000C37C06F8C27C06F8C17C06F8C07C06F890
:10028000BF7C06F8BE7C06ED2F8A46F89C5C06ED26
:100290002EAA07F0FBFFA6F1900006ED248A46F88F
:1002A00088AC46F8705C06ED23AA07F0EFFFA6F1D4
:1002B000640006ED198A46F85CAC46F8445C06ED2D
:1002C00018AA07F0E3FF9FED9F0A9F4B46F8183CE2
:1002D0000CF070FD07EE100AF8EEC77AB6EE008A51
:1002E00067EE887A0421FCEEE77A2422974B46F8E1
:1002F000140C46F8107C06F80C7CB771F771377255
:100300007772B77206F8047C46ED027A3171727129
:10031000336008F007F88E4BC6F818A041F2286049
:100320004FF0010A06F800A003F23C5080ED008A6D
:1003300003F2345080ED008A41F62830854903F8F5
:1003400000A004F64C20B163056003F5A760824A63
:10035000016004F63421DFED817A0A6004F644215D
:10036000DFF84CE20A6004F63822C2ED007A04F6A7
:100370004822CEF80080DFF83CE2C2F800E004F644
:100380003C2277489FED777ADFF82CC2DFF82CE229
:10039000106040F27752C3F8402503F244503946CA
:1003A00032644FF4AF528CED007A8EED007AF76232
:1003B00037637562F56186ED058A86ED0F8A86EDF5
:1003C0000D8AC6ED038AC6ED048A0EF025FE394675
:1003D00006F144004FF4AF520EF01EFE04F6642CFA
:1003E000614ECCF8005004F6682C6048CCF8005000
:1003F00004F5276C9FED5E7ACCF8005004F6842C4F
:10040000DFF8BCE1CCF8005004F6882CDFED597A17
:10041000CCF8005004F5296CCEED007ACCF80050F1
:1004200004F6A42CDFF89CE1CCF8005004F52A6C0B
:100430005149CCF8005004F6B82CDFED507ACCF8D6
:10044000005004F5266C4E4BCCF8006004F5286C87
:100450004C4ACCF8006004F66C26DFF86CC13060C2
:1004600004F68C2684F854AA306004F658264FF01F
:100470007850306004F6782684F874AA3060424ED2
:10048000424886ED007A424EC0F800C0C6F800E04F
:10049000404E4148DFF834E1C6F800E0DFF830C1F3
:1004A000DFF830E1C0F800C0DFF82CC1CEF800C0A2
:1004B00004F65C2C04F67C2ECCF80010CEF800106C
:1004C00004F6942C04F69C2E3448CCF8003004F644
:1004D0009821C0ED007A04F52B6CCEF80020304E48
:1004E00030480B6004F6B42E4FF07A5184F8A87AA5
:1004F00031600160CCF8005004F52C606EE000BF64
:10050000003802400000024000000020D34D62107D
:1005100010E000E000ED00E000080650F8100010C8
:10052000E83200106F12833A00000030BF9F7A3F1C
:100530009405002084050020A8050020B8070020AD
:10054000D8D20020734F814600002E4394F100085A
:10055000F0210010CDCC4CBE00004842AE47E13D3A
:10056000DB0FC93F000070436666663FCDCCCC3ED2
:100570000080D44400004843A913D43E1111913D9A
:10058000CDCC4C3F00C0124480DC0120B4070020D9
:10059000F804002088050020AC050020FC040020A1
:1005A000A00500208C0500200AD7233C0000001085
:1005B000B00500208FC2F53D1C270010143D00102F
:1005C000980500203333333FCDCCCC3D8988083C9F
:1005D0009A99993EA4050020FE9C5B37CEF80080D6
:1005E00004F6C42104F6CC2C04F6C82E03600A607D
:1005F000CCF80050CEF8005004F6D82004F6DC21E8
:1006000004F6E42C04F6E82E04F6BC26C1F80080BB
:10061000CCF80030CEF80030056004F52F6104F608
:10062000F42004F6083C04F5306E336004F52E66C1
:1006300005600D60CCF80050CEF8005004F6043090
:1006400004F60C3104F5316C04F6143E356004F602
:10065000EC26C0F800800B60CCF80030CEF800200B
:1006600004F61C3004F6183104F5336C04F62C3E05
:10067000326004F63432CEF8008004F62833056088
:100680000D6004F6383004F64431CCF8005004F61E
:100690003C3E04F5346C1560D84ACEF800201D604D
:1006A00004F5366E04F6583305600D6004F53560C8
:1006B00004F65431CCF8005004F65C3C84F8D07A4F
:1006C00084F8F87A84F8207B04F6643284F8487B56
:1006D000C1F800801D600560CCF80050CEF80050D5
:1006E00004F66C3384F870AB84F898AB84F8C07B64
:1006F00004F6683A04F5386704F6783004F67C317D
:1007000004F6843C04F6883EC1F8008015601D6044
:10071000CAF800503D600560CCF8005004F68C32F9
:1007200004F6943304F5396A04F6A83704F53A6000
:1007300004F6A43104F6AC3CCEF8005004F53B6E50
:10074000C1F8008015601D60CAF800503D6005606A
:1007500004F53D67CCF8005004F6B43204F6BC331F
:1007600004F6B83A04F6C83004F6CC3104F6D83CA6
:10077000CEF800504E4604F6D43E3D60C1F80080ED
:10078000C9F8048046F8088B15601D60CAF800504F
:100790000560CCF8005004F6DC34A846CEF80050D2
:1007A00009F12C070EF08AFC07EE100AF8EEC77A62
:1007B000B0EE687A67EEA97A44F8048BA7EE897ADE
:1007C0008F4D9FED908AA6EC017AF0EE477A99ED75
:1007D000007A77EE877ABE42C9ED007AE2D1F7EE71
:1007E000008AC8EEA77A00244FF0010A214605F1DD
:1007F00050004FF4A462C5F8704585F874A5DFF881
:100800001C92DFF82082804E804F9FED819AC5EDCB
:10081000007A85ED0F8A85ED138AC5ED0C8A85ED8A
:100820000E9A0EF0F9FB05F27C5305F28452C3EDEB
:10083000008A82ED009A05F28C5305F5B16283EDD2
:10084000008A214605F2A45382ED008A05F5B560C1
:100850004FF4A46285F8D0AAC5F8C84A83ED008A8F
:100860000EF0DAFB05F6D822C2ED008A05F58153B9
:1008700005F52E6241F2280082ED009A05F6E82285
:1008800005F6E42E05F800A01C60214605F6FC23C1
:1008900005F5306082ED008A4FF4A4628EED008A87
:1008A00083ED008A0EF0B8FBD9F83030594843F098
:1008B0000803C9F8303002251022594614928DF8E9
:1008C00054A08DF856408DF857408DF8555007F0DC
:1008D000F1FED9F8303043F00703C9F83030404614
:1008E0004FF41073594614938DF854508DF85550A9
:1008F0008DF856A08DF8574007F0DCFED8F8203070
:1009000023F07063C8F82030D8F8203043F08063BB
:10091000C8F82030D8F8243023F0F003C8F8243089
:10092000D8F8243043F04003C8F8243030464FF460
:10093000A053594614938DF854508DF855508DF8A6
:1009400056408DF8574007F0B5FE3348036A23F44C
:1009500070230362036A43F4C0230362736A23F4BF
:1009600070637362736A43F4C06373623B68AB4243
:1009700000F0BC8110235946149307F09BFE736A64
:1009800023F470237362736A43F4C02373621E4CB2
:10099000022200235946802520468DF854208DF8E8
:1009A00055208DF856308DF85730149507F082FE9B
:1009B000236A184A23F070432362236A102143F00C
:1009C000C043236244F6FF735183013BFDD1114BB9
:1009D000124C10221A83236C43F400132364236AFD
:1009E00043F4001323624FF4001007F05BFE0C4B3E
:1009F0001A8892B242F001021A8015E00000B0405D
:100A00000000001000000000000802400800002064
:100A10000000DC43000C02400000024000380240AD
:100A200000540040000402409A88A36822F03F026C
:100A300003F00C031204042B4FEA124201F0278545
:100A4000082B41F021856368616813F4800F18BF9B
:100A5000AF48636808BFAF4801F03F01B0FBF1F158
:100A6000C3F3881301FB03F3AB494C68C4F301449F
:100A700001346400B3FBF4F4A748A8498568DFF8A3
:100A8000DCC2A74BA74EC5F3031E44F2330511F891
:100A90000E80D0F808E0CEF3822E24FA08F411F884
:100AA0000E80D0F808E024FA08F4ACFB0480CEF302
:100AB000423E800C024311F80E109A801A88A10958
:100AC000A6FB01C1890922F0010203294FEA024273
:100AD00098BF04210130120C1A80188499831A8857
:100AE00092B242F001021A801A8822F4816222F046
:100AF00002021204120C42F480621A8001211D814C
:100B0000022008F00FF9AF210446042008F00AF98A
:100B1000854BAF220444812105201A7008F002F9A8
:100B200004210444062008F0FDF8CB2104442020D1
:100B300008F0F8F82120CB2108F0F4F83B68022BEC
:100B400019D10121082008F0EDF8012105460920FE
:100B500008F0E8F8C02105440E2008F0E3F82C4422
:100B600000210444142008F0DDF80021044415207D
:100B700008F0D8F804449E21022008F0D3F80021A0
:100B800004440A2008F0CEF83B68022B044404D049
:100B90000E20042108F0C6F804440021272008F0A4
:100BA000C1F80F2104441F2008F0BCF80A212618C0
:100BB0001A2008F0B7F8584C0A2106441B2008F008
:100BC000B1F8236C43F400432364236A43F40043E5
:100BD000236206444FF4004007F064FD534A938BB0
:100BE00023F47B6323F00F031B041B0C022193836C
:100BF0001184918BA3681B0289B203D5A36823F4E7
:100C00000003A360444B424CD3F88450D3F884E0F3
:100C10005B684748474A03F03F03B4FBF3F4C5F36E
:100C20008815CEF3027305FB04F4B4FBF3F31B0A3F
:100C300003EB83035B00A0FB03E39B0A0533A2FBEA
:100C40000302D2085308981E02F00102120280B279
:100C500092B2FD289CBF42F400721A43334B88BF06
:100C600040F2022241F420611A8499833B68022BEE
:100C700011D1294A304B116C41F0005111641A68AE
:100C8000169922F47F6222F00E020A431A601A6853
:100C900042F001021A60002E00F0C283274C0DF1D1
:100CA0004808274D2748284A3968A2604FF4C8638E
:100CB00003602846236107F0AFFC2B6843F0010373
:100CC0002B601A4B9A8B570504D49A8B92B242F43C
:100CD00080629A831D4B1E4C1E4A1F4911600025DD
:100CE0001D602369DE073BD4FEE7FEE7D9F830300C
:100CF00043F00103C9F830301025032359461495F9
:100D00008DF857408DF8543007F0D4FC3FE600BF13
:100D100000127A000024F400003802402400002071
:100D200000540040632D3E05EC040020003C0040D0
:100D3000F1197605CDCCCCCC0074004008E9012037
:100D4000B86002400C00002084DC01200400002078
:100D500000000240F004002004E9012083DE1B4370
:100D6000DB4EDC4BDFF8A4A31D70336B43F00103B3
:100D700033634FF4D0524FF0030902232046594603
:100D800014928DF855908DF854308DF856508DF89A
:100D9000575007F08FFC636A23F0F0036362636AC5
:100DA00043F0A0036362636A23F470436362636A7F
:100DB00043F420436362636A23F470236362636ACB
:100DC00043F420230127636220464FF48063594691
:100DD0008DF8559014938DF856708DF8577007F074
:100DE00069FC626ABC4BBD49DFF81C9322F4706257
:100DF0006262626A42F420626262726C42F4804211
:100E00007264726B4FF0006442F08002726340467D
:100E10009C601C22D9608DF848208DF84A708DF8AE
:100E20004B708DF8495007F0F1FC336C3B43336451
:100E3000284607F0C7FC9AF804308AF8037040226D
:100E4000072B8AF800508AF801508AF802508AF875
:100E50001C708AF820508AF821708AF8062007D87A
:100E600003F5317309EB43039A88C2F30E029A80AB
:100E70009AF80530072B07D803F5317309EB4303C4
:100E80009A88C2F30E029A809549964CCAF87C1053
:100E900000230821C9F81033CAF88040C9F8143378
:100EA000C9F8503389F88C33C9F81833C9F854336A
:100EB00089F88D33C9F81C33C9F8583389F88E3353
:100EC000C9F82033C9F85C3389F88F33C9F8243363
:100ED000C9F8603389F89033C9F82833C9F8643306
:100EE00089F89133C9F82C33C9F8683389F89233FB
:100EF000C9F83033C9F86C3389F89333C9F83433FF
:100F0000C9F8703389F89433C9F83833C9F87433A1
:100F100089F89533C9F83C33A9F8B21389F8001061
:100F20004021A9F80410042189F801104FF4A071A0
:100F3000DFF8DC81DFF8DCC1A9F8061002214FF0F0
:100F4000A042694889F808106849DFF8CCE1684F89
:100F5000684E694DC9F81080012408F55878C9F821
:100F600018C0ACF5A06CC9F87833C9F80C2089F822
:100F7000963389F80330C9F84033C9F854E0C9F80A
:100F80007C33C9F81C7089F89733C9F85860C9F8E0
:100F90004433C9F82050C9F88033C9F85C0089F897
:100FA0009833C9F82410C9F84833C9F86080C9F8E3
:100FB0008433A0F5E06089F89933A1F58C61C9F814
:100FC0004C3389F80240C9F8883389F80B4089F816
:100FD0009A33C9F814C09368C9F8CC00C9F89010C6
:100FE000A8F5C8680CF5A07CAEF5B46EA7F56877D7
:100FF000A6F5B066A5F5607500F5D07001F5306115
:10100000C9F89480C9F898C0C9F89CE0C9F8A070E4
:10101000C9F8A460C9F8A850C9F8AC00C9F8D01044
:101020000CF52B5CDFF8F4E03448354E354DC9F84B
:10103000D8C0A1F5007123F0010308F5D7584FF08F
:101040005027C9F8DCE0C9F80C11C9F8D480C9F8F8
:10105000E070C9F8E460C9F8E850C9F8EC009360A2
:10106000D36843F04003D36007F010FA99F80920E1
:10107000D9F80C30002A0CBF4FF434124FF474121C
:101080009A632146142007F0B9F999F80320D9F89A
:101090000C30A24206D19A68052161F3440242F065
:1010A00020029A60DA68184D6FF39E7242F0005287
:1010B0000121DA60322007F0A1F9284607F082FB0F
:1010C000D9F80C3100241C6099F80830012B27E076
:1010D000003802402000002000ED00E00005FA0585
:1010E0001000002034000020400B00506009005028
:1010F00020090050200B0050400900500080005093
:101100000060005000700050D4E90120000500206C
:101110000008005000090050000B00500040005033
:101120006B69214D1A6816BF012164F3010261F356
:1011300001021A60284607F0A1FFD9F814301A6896
:101140006FF382021A6099F80B30012B264600F0EB
:10115000CB81EB6800221192119A144942F02002CF
:101160001192119A102060F38A121192119A1A6149
:101170001A69119203E01A691192013902D0119A89
:101180009406F8D40221032007F038F900231293C3
:10119000129AD9F80C30054942F010021292129AB4
:1011A0001A611A69129207E0D4E90120400D030088
:1011B0001A691292013902D0129AD006F8D403208B
:1011C000022107F01BF999F80030BA48002B5BD0D8
:1011D000D0F890404FF0FF310022012BA160E26077
:1011E00052D9D0F89440022BA160E2604CD9D0F8DB
:1011F0009840032BA160E26046D9D0F89C40042BB4
:10120000A160E26040D9D0F8A040052BA160E26067
:101210003AD9D0F8A440062BA160E26034D9D0F8C6
:10122000A840072BA160E2602ED9D0F8AC40082B73
:10123000A160E26028D9D0F8B000092B8160C260BB
:1012400022D9D9F8B4409B48A1600A2BE2601BD98F
:10125000D0F8B8400B2BA160E26015D9D0F8BC40A3
:101260000C2BA160E2600FD9D0F8C0400D2BA1601B
:10127000E26009D9D0F8C4400E2BA160E26003D926
:10128000D0F8C8309960DA608B4BD9F8CC200121B6
:10129000598313686FF382036FF341036FF3C30342
:1012A0006FF34513D90402D443F480531360C8206C
:1012B000012107F0A3F8DAF8802099F80310D9F893
:1012C0000C3010687D4C7E4F7E4E002291429A6118
:1012D0004FF0FF3108BF10226FF08045596142F096
:1012E0000C5259605D619C61996942F4001242F0B0
:1012F00008020A439A619A6842F001029A608047A4
:10130000714B724ADA600124432358468DF85030FD
:101310008DF851408DF852408DF8534007F076FA21
:101320001722022358468DF850208DF852308DF840
:1013300051408DF8534007F069FACDF808B0022308
:10134000CB468DF84330DBF810234FF00008002A1D
:1013500048D19AF800205E49002A40F07786DBF8F1
:101360001033002B40F0BE864FF0804301213960DE
:101370001A8822F001021204120C1A809A8922F0B3
:1013800001021204120C9A811A8822F45C7212046F
:10139000120C1A8042F6DF644FF6FE720520DC6202
:1013A000188599821A821A8892B242F080021A80B5
:1013B0009A8992B20A439A811A8892B20A431A8091
:1013C0003B68002BFCD14FF08042138823F00103CF
:1013D0001B041B0C138002238DF84330DBF8102311
:1013E000002AB6D09AF800300A2BBDD801A151F8D6
:1013F00023F000BF5F130008D11500085320000838
:10140000691300088F150008B11500085915000868
:101410002F1500080915000869130008691700084E
:10142000D7F80080B8F1010F01F03E80294C11AED1
:101430003B68012B01F02E80274B28481A6B42F4A1
:10144000001242F001021A631A6C0DF1480842F0D2
:1014500000521A64032541461022002312928DF88F
:101460004F308DF84C5007F025F91D4B169A19682E
:10147000DFF870E021F47F6121F00E010A431A6069
:101480001A6842F001021A60BEF804309BB243F0C1
:101490008003AEF804303322012330468DF84550E6
:1014A0008DF846508DF844208DF8473007F0AEF99E
:1014B000FFF7F7BBD4E901200008024000080080D4
:1014C000F4040020B405002000ED00E00006FA0559
:1014D0000005002008E90120003802400000024019
:1014E00000740040003C00402122A121EB6862F31F
:1014F0000F0461F30F06C0F28004C0F280065A6246
:101500009C62C3F8006125E6DAF88030C64C9B6B1C
:10151000984701287FF428AFE36FC4481B68214631
:10152000984700287FF420AF052323701CE79AF822
:101530001C308AF81280013B0A2B3FF615AFDFE81A
:1015400013F00305F004CD04A60437052305660552
:101550008804570446047804DAF87C30B24CB34867
:10156000DB68214698478DF843009DF84330DBB295
:101570001A1FD2B2012A40F2F185062B7FF4F4AE95
:10158000D4F880300A221B6822709847ECE69AF85B
:101590000230092B3FF6E8AEDFE813F05C02EF0102
:1015A000F602A0011703C00271014C0124011C01C5
:1015B000DAF87C309C4C9B689C48214698478DF813
:1015C00043009DF84330002BCFD106232370CBE698
:1015D000DAF88030944C9B689847BBF98C25934B84
:1015E000002A80F20186B3F98E25002A80F2F9855F
:1015F000B3F99025002A80F2F185B3F99225002AEB
:1016000080F2D385B3F99425002A80F20286B3F9DB
:101610009625002A80F2FA85B3F99825002A80F2EF
:10162000F285B3F99A35002B80F2EA85FF236371C6
:10163000BBF98E257D4B002A80F2DF85B3F990251A
:10164000002A80F2D785B3F99225002A80F2CF854F
:10165000B3F99425002A80F2DF85B3F99625002A94
:1016600080F2E385B3F99825002A80F2DB85B3F98F
:101670009A35002BB8BFFF2380F2D1856B488AF8DA
:10168000043007F0FBFCDAF88030DB689847DBF8C1
:10169000CC20DAF880301068C0F341408AF821008D
:1016A000042200F003009B698AF8002098479AF80A
:1016B00004109AF821200BEB41000BEB4113B0F81A
:1016C0008C4583F8B18304F07F0501F11E00C4F35B
:1016D000C01483F8AE430BEB40109AF8204083F817
:1016E000AC439AF8064083F8AD53A3F8B24383F8AD
:1016F000AF2303F56A7380F8048080F805800AB987
:1017000001221A72494807F0BBF89AF805109AF8B6
:1017100021200BEB41000BEB4113B0F88C4583F813
:10172000B18304F07F0501F11E00C4F3C01483F8F7
:10173000AE430BEB40109AF8204083F8AC439AF884
:10174000064083F8AD53A3F8B24383F8AF2303F503
:101750006A7380F8048080F805800AB901221A7241
:10176000324807F08DF8FFE59AF804208AF80080E7
:1017700001238AF803308AF81C308AF82130072ABE
:101780004FF040038AF801808AF802808AF82080AE
:101790008AF8063007D802F531730BEB43039A88B9
:1017A000C2F30E029A809AF80530072B07D803F58A
:1017B00031730BEB43039A88C2F30E029A80DAF876
:1017C00080305B689847DAF87C3018485B681849C5
:1017D0009847C9E5DAF880305B6B984708238AF8A8
:1017E0000030C1E59AF803209AF83930AAF816308B
:1017F0000921012A8AF81480AAF81880AAF81A8008
:101800008AF81510084B00F03385022A7FF4ACAD3E
:101810001A7F0D2A00F0BD850B3AD2B2012A3FF69D
:10182000A3AD0122DA709FE500050020D4E9012074
:10183000200500209AF83220D14C002A00F0328591
:1018400042F44072E378E2828021062221756275BB
:1018500040F20941FF22012B2183628300F086843C
:10186000022B7FF481AD237F0D2B00F075860B3B9F
:10187000DBB2012B3FF678AD0123E37074E59AF8F3
:101880003120BF4C002A00F0D38442F44072E37848
:10189000E282802106222175627540F20941FF2211
:1018A000012B2183628300F04685022B7FF45CAD1F
:1018B000237F0D2BDBD19BF8112184F81C800123A1
:1018C000032AE370AF4B00F09286DAF8803002987A
:1018D000DB6A984707238AF8023045E59AF8032027
:1018E000AAF8188080214FF4007306208AF814109B
:1018F000012A4FF00901AAF816308AF81500AAF853
:101900001A109F4B00F0EF84022A7FF42DAD1A7F4E
:101910000D2A81D19BF813119BF81201B07000EBD6
:1019200001209BF81021D8869BF81101F1703270CC
:101930009BF8141183F8342070709BF8152183F8FC
:1019400035009BF816013171012483F8381072714B
:101950009BF8171183F83920B0719BF8182183F890
:101960003A00042083F81C80DC70F17183F83B108E
:10197000327283F83C209870F6E49AF80350AAF883
:101980001880802306214FF480728AF81430012DCC
:101990004FF012038AF81510AAF81620AAF81A3088
:1019A000774C00F08884022D7FF4DEAC237F0D2B72
:1019B0007FF45DAF9BF812219BF818319BF813114F
:1019C0009BF8190184F81C8002EB012103EB002035
:1019D0009BF81B219BF81A31A18403EB02239BF88F
:1019E0001D119BF81C21A38502EB01219BF81031EE
:1019F000E18501229BF81111E27084F822309BF8F6
:101A000014219BF8153184F8231084F826209BF8C4
:101A100016119BF8172184F827309BF81E3184F8A3
:101A2000281084F829209BF81F119BF8202184F8A6
:101A300030309BF82131608584F8311084F83220F1
:101A400084F83330D4F8803004F12200DB69984701
:101A5000A57089E49AF80330AAF81880802206203D
:101A60004FF480718AF81420012B4FF008028AF895
:101A70001500AAF81610AAF81A20414C00F0768337
:101A8000022B7FF471AC237F0D2B7FF4F0AE9BF81B
:101A900013019BF812319BF810119BF8112184F867
:101AA000221003EB0023A3849BF814319BF815113B
:101AB00084F8232084F826309BF816219BF81731F0
:101AC00084F82710012584F8282084F829302D482F
:101AD000A37184F81C80E57007F0D0FA6179A379CE
:101AE000A5700BEB411202F56A725089984201D041
:101AF00003B15381234806F0C3FE9AF804109AF804
:101B000006300BEB411202F56A72508998423FF49D
:101B100027AE002B3FF424AE538121E69AF8302003
:101B2000174C002A00F08D8342F44072E378E28281
:101B3000802106222175627540F20941FF22012BA6
:101B40002183628300F01283022B7FF40DAC237F8C
:101B50000D2B7FF48CAE9BF8112184F81C8001239F
:101B6000032AE370074B00F06185DAF880300298B1
:101B70009B6A984706238AF80230FFF7F5BB00BF3F
:101B800000050020D4E901209AF803108AF8148097
:101B9000012005248142AAF81880AAF81A808AF840
:101BA0001540AAF81600C44A00F06F8302297FF49A
:101BB000DBAB137F0D2B00F0F3830B3BDBB2012B70
:101BC0003FF6D2ABD070FFF7CFBB9AF80320BAF83C
:101BD0003640AAF81880802306218AF81430012A9A
:101BE0004FF40073AAF81630AAF81A408AF81510B4
:101BF000B14B00F06C83022A7FF4B6AB1A7F0D2A3A
:101C00007FF40AAE012283F81C80DA7024B1AB485D
:101C1000AB4922460DF066F99BF813219BF8101191
:101C20009BF812318AF834109BF811119BF81501BA
:101C30008AF8351003EB02239BF816119BF8142148
:101C40008AF839009BB29BF817018AF83A10092CE0
:101C50009BF81811AAF836308AF838208AF83B0029
:101C60008AF83C1040F2A580022A00F29A8095483A
:101C7000954900780988924C0C900B910925CDF874
:101C80003CB0AB4240F28B8022781444154461781A
:101C90000429ADB2F5D1E27894F802C00492022A88
:101CA000CDF80CC0EDD8227994F800E0CDF814E01E
:101CB0006079A17994F807C094F808E00690022AA8
:101CC0000791CDF820C0CDF824E0DAD80398DFF8EA
:101CD00008C240B201B20CF1120E01EBC1034FF089
:101CE000000B0EEB01110D9063440A91584682429D
:101CF00050DD21780C440D4494F801E0BEF1050F4D
:101D0000ADB2F4D1DDF828900D99C0000190814466
:101D10000C98884200F01C83059818704FF004015D
:101D20005970039804999870D9700698079958715A
:101D3000997108980999D8711A71197203982179C3
:101D400094F805E00C9094F801C0CDF838C00198E3
:101D5000DDF828C001EB0E2194F800E00CF800E05B
:101D60000BF1010B94F802C094F803E0A9F80410F9
:101D700089B25FFA8BFB0B910E9989F801104FFA2B
:101D80008BF0A17989F80610824289F802C089F89F
:101D900003E0AEDCBAF83630AB423FF675AFDDF8A3
:101DA0003CB0DFF824C1DFF81CE1ACF800808EF80D
:101DB00000804648DAF8803000F10A015B6A00F1E1
:101DC0001C02984705238AF80230FFF7CDBA9AF82B
:101DD0000530394A5B4493F89B33DBB2012B00F0AA
:101DE000A182022B00F03E83032B7FF4BDAA5EE0AC
:101DF0009AF805000BEB000100F115020BEB401304
:101E00000BEB421281F89B830125022183F8AE83FC
:101E1000C2F81881C3F8BC8383F8C55382F8141143
:101E2000C3F8C08306F05EFB0A238AF81C30FFF774
:101E30009BBA9AF80E20204B0132D2B2022A8AF8BD
:101E40000E2040F2A28208215A7899741A70FFF786
:101E50008BBA9AF80420184B1D495A4492F89B23D8
:101E6000D2B2012A00F05E82032A20D04969194DBE
:101E70008C68188A2988A4B2201A884217D8042AA4
:101E80007FF472AA59789A741970FFF76DBA9AF8AC
:101E90000430094A5B4493F89B33DBB2012B00F01A
:101EA0007181042B00F04B82032B40F06D810B23DA
:101EB0008AF81C30FFF758BA00050020B40500204E
:101EC000E4EA012004E90120900500203405002007
:101ED000D4E901209C0500203E0500209AF804006A
:101EE000DAF808200BEB401300F115010BEB411160
:101EF000012483F8AE43022481F81441C1F818216B
:101F00000BEB0004BAF80C20C3F8C083C3F8BC2361
:101F100084F89B8306F0E6FA04238AF81C30FFF766
:101F200023BA9AF80520CB4B5A4492F89B23D2B29D
:101F3000012A00F0DD81032A7FF416AA0B21052275
:101F400019779A74FFF710BA9AF80500C24D00F19C
:101F500015020BEB40130BEB4212032483F8AE8304
:101F60000BEB0001C2F8185182F814410822C3F8A3
:101F7000C083C3F8BC2381F89B8306F0B3FA022325
:101F80008AF81C30FFF7F0B99AF80530B14A5B4483
:101F900093F89B33DBB2012B00F06082042B00F03E
:101FA000CE81022B7FF420AF05231377FFF7DCB936
:101FB0009AF80500BAF80C4003944FEA401900F172
:101FC000150300F11E020BEB09050BEB431E0BEB97
:101FD0004212DAF808400BEB43130121D944517146
:101FE00085F8AE830BEB0002CEF818410221039C6A
:101FF000C5F8BC4383F81411C9F8C08382F89B83E9
:1020000006F070FA06238AF81C30FFF7ADB99AF88B
:1020100004000BEB401300F115020BEB42120124FC
:1020200083F8AE430BEB00010224C2F8188182F85A
:102030001441C3F8BC83C3F8C08381F89B8306F0C6
:1020400051FA08238AF81C30FFF78EB99A4200D063
:102050000B70DAF880301B6998479AF804208AF8E8
:10206000008001238AF803308AF81C308AF8213076
:10207000072A4FF040038AF801808AF802808AF824
:1020800020808AF8063007D802F531730BEB430342
:102090009A88C2F30E029A809AF80530072B07D867
:1020A00003F531730BEB43039A88C2F30E029A8057
:1020B000DAF880305B689847DAF87C3067485B680C
:1020C00067499847ABF89085ABF89285ABF8948553
:1020D000ABF89685ABF89885ABF89A858AF80080BE
:1020E000FFF742B94FF0804364223A601A8822F029
:1020F000010212040121120C8AF800101A809A8938
:1021000022F001021204120C9A811A8822F45C72E5
:102110001204120C1A8042F6DF644FF6FE7205209C
:10212000DC62188599821A821A8892B242F0800283
:102130001A809A8992B20A439A811A8892B20A4303
:102140001A803B68002BFCD14FF08042138823F0AB
:1021500001031B041B0C1380FFF706B9D4F8803071
:102160005B6C98470A232370FFF7FEB83D4DA560CE
:102170000421A28123770722022361702270E37079
:10218000FFF7F2B809231377DBF81430BAF8101010
:102190009868354B80B21A882E4B411A91427FF6CF
:1021A000E3A80B221A77FFF7DFB803231A460BEBDD
:1021B00042024FF40041A2F88C15BBF88C258AF836
:1021C000053013043FF534AA00231A460BEB4202F4
:1021D00048F28001A2F88C15FFF750BA02231A4684
:1021E000E5E701231A46E2E700231A46DFE7032367
:1021F0001A46EBE702231A46E8E701231A46E5E709
:1022000007231A46D3E706231A46D0E705231A46C2
:10221000CDE704231A46CAE704231A46D6E7072364
:102220001A46D3E706231A46D0E705231A46CDE718
:10223000D4F880300D48DB6A98470723A370FFF776
:1022400093B8D4F8803009489B6A98470623A37056
:10225000FFF78AB80005002014050020D4E901200A
:1022600020050020E4EA01209C050020DCF10008A4
:1022700004201A7707210222C3F80880A3F80C80F3
:1022800058701970DA70FFF76FB804231177537024
:1022900007210223C2F80880A2F80C801170D370C5
:1022A000FFF762B8D4F88030B5481B6B9847082315
:1022B000A370FFF759B80421B248A3810722022373
:1022C000A060257761702270E370FFF74DB8AD4DC7
:1022D0009D6004209C8107211A7702225870197092
:1022E000DA70FFF741B8A74C9C6004209981F2E7AF
:1022F0001A7D598B22F07F02D2B2002900F0B680FD
:10230000DFF8A4C241F28831ACF80010002A40F096
:10231000B88005221A77DBF814309B68AAF81030D1
:10232000FFF722B89AF801308AF800300D238AF8B6
:102330001C30FFF719B89348A060042119E79AF8F8
:1023400001308AF800300C238AF81C30FFF70CB8F3
:10235000217994F805E0DDF82CC001EB0E208445CE
:102360003FF718AD059818704FF0040058700398A7
:1023700098700498D87006985871079898710898C2
:10238000D87109981A711872DDE401221A77FEF7E4
:10239000EBBF012283F81C809970DA70FEF7E4BF6E
:1023A0004FF0804339601988D07021F00101090491
:1023B000090C1980998982F81C8021F0010212040D
:1023C000120C9A811A8822F45C721204120C1A8080
:1023D00042F6DF614FF6FE72D9621C8598821A823E
:1023E0001A8892B242F080021A809A8992B242F020
:1023F00001029A811A8892B242F001021A803B6867
:10240000002BFCD14FF08042012113888AF8201064
:1024100023F00103DAF880101B041B0C13800B6AF5
:1024200098479AF820309AF8041003228AF802207C
:102430001BB10BEB411282F8AC33534C204606F033
:102440001FFA9AF820309AF80510002B3FF488A95B
:1024500004EB411484F8AC33FFF782B907231377F8
:10246000FEF782BF09231377FEF77EBFDFF838E15E
:102470003221AEF80010002A40F0F98007221A77C6
:1024800049E703221A7746E7404CFEF7F5BA404C7D
:10249000FEF7F2BA3F4B9A8892B242F002029A805B
:1024A0000DF14808FEF7FDBB3B4B3C4D196B3C4C16
:1024B0003C4ADFF8F89041F4001119632B6823F0CF
:1024C00001032B602868212120F001004FF03D53CB
:1024D00028604FF6FE7C2E6028466E604FF4806EBA
:1024E000AE604FF0400AEE602E616961D3604FF438
:1024F00000614FF400524FF480732660A66066615D
:10250000E66226636663A6634FF440362262636226
:10251000A662C4F80490C4F80CA0C4F810C0C4F8B3
:1025200018E0E16106F078F82B6843F010032B60A7
:102530002B6811AE43F008032B602F220323304693
:102540008DF847808DF844208DF845308DF8463061
:1025500006F05CF9FEF76CBF9BF8112184F81C8033
:102560000123032AE370084B22D0DAF88030029866
:102570001B6B984708238AF80230FEF7F5BE00BFB0
:10258000DCF10008E4EA0120D4E901200024F40091
:1025900000127A00003C004000380240B86002405F
:1025A00008E90120006002409C0500200C3C00402E
:1025B00093F81031023BFF2BA8BFFF2398B290B1D4
:1025C0000DF151020023DFF8ACC0991C1CF8033058
:1025D00002F8013C8BB29842114602F10102F2D896
:1025E00081F80080C1E7029981F80080BDE793F887
:1025F0001031023BFF2BA8BFFF2398B288B10DF129
:10260000510200231B4C991CE35C02F8013C8BB285
:102610009842114602F10102F4D881F80080FFF7D8
:1026200054B9029981F80080FFF74FB993F810313F
:10263000023BFF2BA8BFFF2398B298B10DF15102C6
:102640000023DFF830C0991C1CF8033002F8013C6D
:102650008BB29842114602F10102F2D881F8008053
:10266000FFF783BA029981F80080FFF77EBA09224A
:102670001A7750E6E6EA01202DE9F04F2DED0E8B9A
:1026800087B0071DA74EA84DDFF8D882A74C9FED55
:10269000A89ADFEDA89A9FEDA88A00F24460059001
:1026A000A6480378002B41F08184D5ED037AF5EE3E
:1026B000C07AF1EE10FA08D577EE887AF5EEC07A96
:1026C000F1EE10FAF8D4C5ED037AF4EEC87AF1EE23
:1026D00010FA08DB77EEC87AF4EEC87AF1EE10FA59
:1026E000F8DAC5ED037A9FED960A95ED00AA27EE7C
:1026F000800A0AF05FFB9349D5ED037AD5ED025AC3
:102700009FED916A914ADFF860E2D2ED006A9EF88F
:10271000003001EB800090ED007A2AEE077AF7EEA8
:10272000008A77EE288AE5EE867A68EEA68A85ED3D
:10273000097AC8ED028AC5ED037A0F2B03F26A8489
:10274000DFE813F0430BEC0B920A050BB90A8C0B74
:102750002E05EA08120855075006CA09D20344029A
:1027600018011000DFF804929FED797A99F8483546
:10277000C9ED038AD9ED04AAD9ED066AD9ED077A25
:1027800099ED08AAD9F84415002B42F0A380C8EEB1
:10279000878A9FED707AF4EEC78AF1EE10FA02F1A3
:1027A000B080B6EE007AF4EE478AF1EE10FAC8BFB8
:1027B000F0EE478A78EEE78A9FED677A37EEA8BA9F
:1027C000F4EEC7AAF1EE10FA7BEE266AC2F232846A
:1027D0003AEEC77AF7EE007A6BEE07BA76EEEB8A3E
:1027E000F4EEE78AF1EE10FAC2F2D08578EEE78ACD
:1027F000DFED5A7A5A4B02913BEEA8CAB6EE000AB8
:102800002CEE27CA4FEA810A8CEE0BCA0193DFF83F
:1028100060B13CEE400A0AF0CDFA05EE100AF8EE7F
:10282000C56A00F03F007CEE666A0299019B0BEBE3
:10283000C002D64692ED017AD2ED007AE6EE877AB2
:1028400003EB0E0C40309CED007A77EE277AB0F562
:10285000905F02F500720EF1040ECCED007AE9DB18
:102860009FED3ECA02912BEE8CCAB6EE000A8CEEAA
:102870000BCA01933CEE400A0AF09CFA05EE900A5E
:10288000F8EEE56A00F03F007CEE666A0299019B73
:1028900052460BEBC00BDBED017A9BED007AA6EE06
:1028A000A77A03EB020E4030DEED007AE8EE877A7D
:1028B000B0F5905F0BF5007B02F10402CEED007ADB
:1028C000E9DBC9ED05AA01F10C0309EB8303F6EE80
:1028D000007AD3ED016AD9ED01AADFF890B037EEA6
:1028E000EB7AF0EE4A8A36EE877A83ED017A09EBCD
:1028F000810393ED097A37EE4AAA0131EAEE278A7D
:10290000B1F5807F68EEAAAAC9ED00AA02F0D085D1
:10291000C9ED06BA89ED07BAC9ED088AC9F84415A8
:1029200000F034BF041100101C3E0010943E001053
:1029300000000030CDCCCC3EDB0FC9403A10001077
:1029400083F92243E0F100081F420939E83E0010F4
:1029500000803B47ACC5273708E53C1E000080429D
:10296000500000107C3D0010341000102C000010AE
:10297000E4010108DFF84C92DFED8D7A99ED087AD9
:10298000D9ED074A9FED8B5ADFF83CB28A4B99ED9F
:10299000036ADBED086AD3ED085A28EE877A64EE05
:1029A000A77A68EEA66AE7EE057A68EEA58A77EE62
:1029B000867A89ED027AF5EEC07AF1EE10FAC9ED69
:1029C000037ACBED026AC3ED028A08D577EE887AE6
:1029D000F5EEC07AF1EE10FAF8D4C9ED037AF4EE10
:1029E000C87AF1EE10FA08DB77EEC87AF4EEC87A0E
:1029F000F1EE10FAF8DAC9ED037A9FED700AD9ED1D
:102A0000008A019327EE800A0AF0D4F96C49D8EDC8
:102A1000077AD8ED025A9FED676AD8ED036A019BE9
:102A200001EB800090ED007A28EE877A67EE277A36
:102A300089ED097AE5EE867A77EEA67AF5EEC07A28
:102A4000F1EE10FAC8ED037A08D577EE887AF5EE44
:102A5000C07AF1EE10FAF8D4C8ED037AF4EEC87A31
:102A6000F1EE10FA08DB77EEC87AF4EEC87AF1EEF0
:102A700010FAF8DAC8ED037A9FED500AD8ED008A13
:102A8000019327EE800A0AF095F9019BDFED487A61
:102A9000D3ED075A9FED477A93ED026A484AD3ED8A
:102AA000036A65EEA77A02EB8000E6EE077A90ED06
:102AB000007A77EEA67A68EE878AF5EEC07AF1EEB4
:102AC00010FAC3ED037AC8ED098A08D577EE887A43
:102AD000F5EEC07AF1EE10FAF8D4C3ED037AF4EE15
:102AE000C87AF1EE10FA08DB77EEC87AF4EEC87A0D
:102AF000F1EE10FAF8DAC3ED037A9FED300AD3ED68
:102B0000008A019327EE800A0AF054F9DFF8B0E05A
:102B1000DBED077ADBED025A9FED266ADBED036AF7
:102B2000019B0EEB800090ED007A28EE877A67EE2D
:102B3000277A83ED097AE5EE867A77EEA67AF5EEC6
:102B4000C07AF1EE10FACBED037A08D577EE887AE9
:102B5000F5EEC07AF1EE10FAF8D4CBED037AF4EE8C
:102B6000C87AF1EE10FA08DB77EEC87AF4EEC87A8C
:102B7000F1EE10FAF8DACBED037A9FED100ADBEDF7
:102B8000008A27EE800A0AF015F90D49D8ED09AA46
:102B900001EB8000D0ED007A68EEA77AB6EE007AFD
:102BA00077EEAAAACBED097A6AEE87AA00F0EEBD0D
:102BB000000000001F420939F43D001083F9224350
:102BC000E0F10008A43D0010CC3D0010DFF80493B4
:102BD000D9ED065A99ED096AD9ED077A99ED027A8D
:102BE000D9F81420F8EE656A15EE900AE6EE267A1A
:102BF000431C9342C9F8183067EE877AC9ED0A7A08
:102C000082F03380DFF8D092A94999ED066AD9EDB8
:102C1000094A99ED077AD1ED005AD9F81800D9ED93
:102C2000026AD9F81420B8EE465AB7EE006A37EEB9
:102C3000866AA4EE857A431C9342F3EE097AE6EEA7
:102C4000257AC9F8183027EE267AC8ED027A89ED80
:102C50000A7A81F03187DFF884B2DFF88492DBED05
:102C6000066ADBED094ADBED077ADBF818009BED1D
:102C7000026ADBF81420B8EE665AF7EE006A37EE07
:102C8000267AE4EE857A431C9342F3EE096AE7EE76
:102C9000256ACBF8183067EE867AC9ED026ACBED6B
:102CA0000A7A81F05287B7EE007A77EE877AB3EE30
:102CB000096AA7EEA56ADFF82CB2D8ED037A8BED8E
:102CC000026AF5EEC07AF1EE10FA0DD577EE887A49
:102CD000F5EEC07AF1EE10FAF8D4F4EEC87AF1EE1F
:102CE00010FA06DB77EEC87AF4EEC87AF1EE10FA45
:102CF000F8DAD8ED025A9FED6F7A6F4BF4EEC75AAF
:102D0000F1EE10FA01F101869FED6C7AF4EEC77ACC
:102D1000F1EE10FA83ED067A01F10D86DFED684AD7
:102D200098ED004AB0EE005AE7EE854A38EE475A71
:102D300034EEC77A27EE047A87EE055ADFED614A52
:102D400099ED037A88ED095AE5EEA47AB5EEC07ADA
:102D5000F1EE10FAC8ED037A08D537EE087AB5EE31
:102D6000C07AF1EE10FAF8D489ED037AB4EEC87A9D
:102D7000F1EE10FA08DB37EE487AB4EEC87AF1EEDD
:102D800010FAF8DA89ED037ADFED4A7AF4EEE76AB1
:102D9000F1EE10FA42F17880DFED4B7ADFED4B5A1D
:102DA00066EEA77AF4EEE57AF1EE10FA02F26E80A2
:102DB000F0EE657AB4EEE77AF1EE10FAC9ED065A54
:102DC00002F16C80DFED3E4A99ED004AF0EE005AC8
:102DD000E7EE254A78EE675A74EEE77A67EE847A72
:102DE000C7EEA55ADFED374ADBED037AC9ED095A84
:102DF000A6EEA47AF5EEC07AF1EE10FA75EE255A39
:102E000089ED037A08D577EE887AF5EEC07AF1EE8F
:102E100010FAF8D4CBED037AF4EEC87AF1EE10FA9A
:102E200008DB77EEC87AF4EEC87AF1EE10FAF8DA39
:102E3000CBED037A9FED1F7AB4EEC76AF1EE10FA7C
:102E400041F1F2879FED207ADFED206A26EE077AC6
:102E5000B4EEE67AF1EE10FA01F2E887B0EE667AA7
:102E6000F4EEC77AF1EE10FACBED066A01F1E687CF
:102E7000DFED136ADBED004AB0EE005AE7EE856A3B
:102E800038EE475A36EEC77A27EE247A87EE057A6F
:102E90009FED0C5ADFED0E6A8BED097AE6EE057AAE
:102EA00035EE877ACBED037A67EE26AA00F06EBC8A
:102EB000840000200000FA457C3D0010DB0F4940F3
:102EC000DB0FC9C01F4209392EE3CD3917B7D138FE
:102ED000C3F5A83E3C1000106810001094100010BC
:102EE000A43D0010CC3D0010DFF8A49299ED065AE5
:102EF00099ED096AD9ED077A99ED027AD9F814208B
:102F0000F8EE456A15EE100AE6EE267A431C934267
:102F1000C9F8183027EE877A89ED0A7A81F0608641
:102F2000DFF870B2DFF870929BED066A9BED095AEC
:102F3000DBED077ADBED026ADBF81800DBF8142022
:102F4000F8EE465AB7EE006AE5EE257A431C934246
:102F500037EE067A67EEA67A68EE876ACBF8183005
:102F6000CBED0A7AC9ED026A81F05F85B7EE007A8F
:102F700037EE877AD8ED037ADFF820B268EE878AD9
:102F8000F5EEC07AF1EE10FACBED028A0DD577EEB0
:102F9000887AF5EEC07AF1EE10FAF8D4F4EEC87A39
:102FA000F1EE10FA06DB77EEC87AF4EEC87AF1EEAD
:102FB00010FAF8DA98ED026A9FED6D7A6D4BB4EE77
:102FC000C76AF1EE10FA01F10C859FED6B7AF4EE11
:102FD000C77AF1EE10FA83ED067A01F118859FEDBC
:102FE000675AD8ED004AF0EE005AA7EEA55A78EEDF
:102FF000475A35EE477A27EE247AC7EE255A9FEDD9
:10300000605A99ED037AC8ED095AE6EE057AB5EEF5
:10301000C07AF1EE10FAC8ED037A08D537EE087AD7
:10302000B5EEC07AF1EE10FAF8D489ED037AB4EE79
:10303000C87AF1EE10FA08DB37EE487AB4EEC87AB7
:10304000F1EE10FAF8DA89ED037ADFED497AF4EE61
:10305000E76AF1EE10FA41F19B87DFED4A7A9FEDC6
:103060004A6A66EEA77AF4EEC67AF1EE10FA01F239
:103070009187F0EE467AB4EEE77AF1EE10FA89ED38
:10308000066A01F18F879FED3D5AD9ED004AB0EEF7
:10309000006AA7EE065A38EE676A75EE677A67EE41
:1030A000A47A87EE866A9FED365ADBED037A89EDC6
:1030B000096AA6EE857AF5EEC07AF1EE10FA35EEE1
:1030C000866A89ED037A08D577EE887AF5EEC07ABC
:1030D000F1EE10FAF8D4CBED037AF4EEC87AF1EE03
:1030E00010FA08DB77EEC87AF4EEC87AF1EE10FA3F
:1030F000F8DACBED037A9FED1E7AF4EEC78AF1EE93
:1031000010FA41F1A9869FED1F7ADFED1F6A28EEC4
:10311000877AB4EEE67AF1EE10FA01F29F86B0EE0D
:10312000667AF4EEC77AF1EE10FACBED066A01F199
:103130009D86DFED126A9BED005AF0EE005AE7EE35
:10314000A56A78EE475A36EEC77A27EE057A87EEFB
:10315000257ADFED0B5ADFED0D6A8BED097AE8EE8B
:10316000A57A36EE077ACBED037A67EE26AA0DE351
:103170000000FA457C3D0010DB0F4940DB0FC9C061
:103180001F4209392EE3CD3917B7D138C3F5A83E10
:103190003C10001068100010A43D0010CC3D001041
:1031A000DFF8309299F85435C9ED038A99ED05CAD4
:1031B00099ED07AAD9ED087AD9ED095AD9ED0AAAED
:1031C000D9F84C15D9F850C5002B41F0FD829FED80
:1031D0007C6A99ED045A88EE866AF7EE006A35EE4D
:1031E000265AB6EE007A25EE077A9FED765AB4EEAF
:1031F000C56AF1EE10FA76EEE76A01F12483B6EEC5
:10320000005AB4EE456AF1EE10FAC8BFB0EE456A56
:10321000F4EE477AF1EE10FAC8BFB0EE677AB4EE7A
:10322000E67AF1EE10FAD8BFF0EE476A36EE676A3A
:1032300076EEE56A9FED647A37EE86BA75EEA68A79
:10324000B4EEC7CAF7EE007AF1EE10FA3BEE0AAA26
:1032500077EEE8CAC1F2B4863CEE477A6BEE07BA65
:103260003AEE6BAABCF1000F42F00A80F4EECA8A73
:10327000F1EE10FA42F20C84CAEE28DAB4EEE7AAB4
:10328000B6EE007AF1EE10FA7DEEC7DAC2F2F38301
:10329000DFF844B14D4B4FEA810AF7EE007A3AEE7F
:1032A00067AA9FED4B7A02917BEE8A6ACAEE28DA12
:1032B000019326EE87AA87EEA8DA8AEE0BAAC7EE5C
:1032C000AC7AB6EE007A3AEE470A3DEE27DA7DEEAA
:1032D000C7DA09F06FFD05EE900AF8EEE56A00F036
:1032E0003F00421C2BEE0D6A7AEE666A0299019B42
:1032F0000BEB820B52465BED017A9BED007A37EEC9
:10330000677A03EB020EE6EE877A4030B0F58E5F07
:103310000BF5807BB0EE677ADEED007AE6EE077A99
:1033200002F10402CEED007AE5DB9FED29EA2BEEF7
:103330008EEAB6EE00AA8EEE0BEA3EEE4AAAB0EE98
:103340004A0A0291019309F035FD07EE900AF8EE62
:10335000E76ABEEE00AADFF884B00299019B00F094
:103360003F003AEE6DAA7EEE666A0BEBC00B52464A
:10337000DBED017A9BED007AA6EEA77A03EB020E55
:103380004030DEED007AEAEE077AB0F5905F0BF59B
:10339000007B02F10402CEED007AE9DBF4EEEB8A69
:1033A000F1EE10FA42F2C6808BEEA8DA4FF0000C74
:1033B000F6EE007A3DEE67DA89ED06CA01F02BBF22
:1033C00000803B47ACC5273708E53C1E000B0010CA
:1033D00000008042D40A001098930108E40101081B
:1033E000AE47A13F1FED026AD8ED037ADFF868937C
:1033F000DFF868B3F7EE086A28EE866A68EEA66A18
:10340000F5EEC07AF1EE10FA89ED026ACBED026AB0
:103410000DD577EE887AF5EEC07AF1EE10FAF8D491
:10342000F4EEC87AF1EE10FA06DB77EEC87AF4EE25
:10343000C87AF1EE10FAF8DA9FEDC07AF4EEC78A96
:10344000F1EE10FA01F1A9829FEDBD7AF4EEC77A90
:10345000F1EE10FA88ED067A01F1B5829FEDB95AC6
:10346000D8ED004AF0EE005AA7EEA55A78EE475A7A
:1034700035EE477A27EE247AC7EE255A9FEDB25AE9
:1034800099ED037AC8ED095AE8EE857AB5EEC07A6F
:10349000F1EE10FAC8ED037A08D537EE087AB5EEEA
:1034A000C07AF1EE10FAF8D489ED037AB4EEC87A56
:1034B000F1EE10FA08DB37EE487AB4EEC87AF1EE96
:1034C00010FAF8DA89ED037ADFED9C7AB4EEE76A58
:1034D000F1EE10FA41F1F084DFED9C7A9FED9C5AF9
:1034E00066EE277AF4EEC57AF1EE10FA01F2E68480
:1034F000F0EE457AB4EEE77AF1EE10FA89ED065A6D
:1035000001F1E484DFED8F4A99ED004AB0EE005AF4
:10351000E7EE054A38EE675A74EEE77A67EE847A8A
:1035200087EE855ADFED884ADBED037A89ED095A8B
:10353000A6EE247AF5EEC07AF1EE10FA75EE855A11
:1035400089ED037A08D577EE887AF5EEC07AF1EE48
:1035500010FAF8D4CBED037AF4EEC87AF1EE10FA53
:1035600008DB77EEC87AF4EEC87AF1EE10FAF8DAF2
:10357000CBED037A9FED717AF4EEC76AF1EE10FAA3
:1035800041F1B8839FED717A9FED716A26EE877ADB
:10359000B4EEC67AF1EE10FA01F2AE83B0EE467ADE
:1035A000F4EEC77AF1EE10FA8BED066A01F1AC8306
:1035B0009FED646ADBED004AB0EE005AA7EE856A23
:1035C00038EE475A36EE477A27EE247A87EE057AA8
:1035D0009FED5D5A9FED5F6A8BED097AE6EE857A85
:1035E00035EE877ACBED037A67EE06AACEE098ED4A
:1035F000037ADFF86491F7EE086A68EEA66AB5EE22
:10360000C07AF1EE10FAC9ED026A0DD537EE087AEC
:10361000B5EEC07AF1EE10FAF8D4B4EEC87AF1EE55
:1036200010FA06DB37EE487AB4EEC87AF1EE10FAFB
:10363000F8DADFED427AF4EEE78AF1EE10FA01F102
:103640008881DFED3F7AB4EEE77AF1EE10FAC8ED4B
:10365000067A01F19481DFED3B5A98ED005AB0EE05
:10366000006AE7EE065A38EE676A75EEE77A67EEAB
:10367000857A87EE866ADFED345AD9ED037A88EDD4
:10368000096AA8EEA57AF5EEC07AF1EE10FA88ED97
:10369000037A08D577EE887AF5EEC07AF1EE10FA63
:1036A000F8D4C9ED037AF4EEC87AF1EE10FA08DB2B
:1036B00077EEC87AF4EEC87AF1EE10FAF8DAC9EDCE
:1036C000037A9FED1E7AF4EEC76AF1EE10FA41F12B
:1036D00047849FED1E7ADFED1E5A26EE877AB4EE00
:1036E000E57AF1EE10FA01F23D84B0EE657AF4EE7F
:1036F000C77AF1EE10FAC9ED065A01F13B84DFED0D
:10370000115AD9ED004AB0EE005AE7EE855A38EE6C
:10371000475A35EEC77A27EE247A87EE057ADFED31
:103720000A5A89ED097AE6EEA57A36EE077AF6EEC0
:10373000006A67EE26AAC9ED037A27E00000FA4581
:10374000DB0F4940DB0FC9C01F4209392EE3CD39D9
:1037500017B7D138C3F5A83EA43D0010CC3D0010EA
:10376000CDCC4CBFCDCCCC3FD8ED00AA0BF0A6FC05
:1037700007EE100AF8EEC76A5FED077A1FED077AC9
:1037800066EE896AE6EE877A6AEEA7AA716A326AFD
:10379000B94B0131012A7162D3ED048A00F0218610
:1037A000032A00F05086002A00F03386D4ED037A15
:1037B000C6ED058AF5EEC07AF1EE10FA08D577EE7F
:1037C000887AF5EEC07AF1EE10FAF8D4C4ED037AF7
:1037D000F4EEC87AF1EE10FA08DB77EEC87AF4EE70
:1037E000C87AF1EE10FAF8DAC4ED037A9FEDA30A75
:1037F00094ED00BA27EE800A09F0DCFAA049D4ED76
:10380000037AA04AD4ED025A9FED9F6ADFF8ACE23A
:1038100092ED00AADEF83030726A01EB800090ED84
:10382000007A9A4894492BEE077AF7EE006A77EE11
:10383000266AE5EE867A9A4266EEA88A84ED097ACF
:1038400028EE8AAAC0ED008A2AEE2AAAC4ED037ADD
:1038500004D38F4A1378002B40F00586DFF860E22E
:103860009EF800309BB9DFF85CB2DBED008AF5EE24
:10387000408AF1EE10FA40F05886DFF84C92D9ED0C
:10388000008AF5EE408AF1EE10FA40F0F6858148A4
:10389000B0EE4A0A05F07AFC7F48F0EE408AB0EEBE
:1038A0004A0A05F073FC7D4A38EE800A1378F6EE7A
:1038B000007A60EE278A002B40F034857848037840
:1038C000002B40F06784774A1378002B40F0348453
:1038D000B0EE68AAF7EE007AB4EEE7AAF1EE10FABD
:1038E00040F3428447F6FF72F7EE007AF4EEE78A7F
:1038F000F1EE10FA40F35F8547F6FF7327F8023CBC
:10390000059B27F8042C04379F427EF4C9AE07B00C
:10391000BDEC0E8BBDE8F08FDFF8B09199F858350B
:10392000C9ED038AD9ED05AAD9ED07BAD9ED087A10
:1039300099ED096AD9ED0ACA99ED0BAAD9F8501583
:10394000D9F854C5002B40F08287DFED575A99ED26
:10395000045AC8EEA58ADFED555AF7EE006A35EE37
:10396000265AF4EEE58AB6EE007AF1EE10FA76EE1B
:10397000E76A25EE077A00F1A987F6EE005AF4EE21
:10398000658AF1EE10FAC8BFF0EE658AF4EE477A68
:10399000F1EE10FAC8BFB0EE677A78EEE78AB4EEBF
:1039A000E67AF1EE10FA77EEA88ADFED417AD8BF19
:1039B000F0EE476A76EEC66AF4EEE7AAF1EE10FA88
:1039C00036EE26CA78EEABBAC1F21A837AEEE77AFF
:1039D00028EEA7BA7BEECBBABCF1000F01F0BA8497
:1039E000F7EE007AF4EEE7BAF1EE10FA81F22087F2
:1039F000DFF8DCB02F4B4FEA810ADFED2FBA0291DE
:103A00006BEE2BBAB6EE000ACBEEA8BA01933BEEF2
:103A1000C00A09F0CFF905EE900AF8EEE56A00F069
:103A20003F007BEEE66A0299019B52460BEBC00B0E
:103A30009BED017ADBED007AE6EE877A03EB020E6E
:103A400040309EED007A77EE277AB0F5905F0BF567
:103A5000007B02F10402CEED007AE9DBF6EE00CA4B
:103A6000B4EECBCAF1EE10FA41F2B3854FF0000C80
:103A7000C9ED06AA01F089BB0411001083F92243A5
:103A8000E0F10008301000101F4209392C1000101E
:103A90003A1000103C3D00105C3D00103810001042
:103AA000391000103710001000803B47ACC5273795
:103AB00008E53C1EA805001000008042C010001060
:103AC00035100010443E00106C3E001078050010C8
:103AD000E4010108B537983F1FED026AD8ED037A7B
:103AE000DFF82094DFF820B4F7EE086A28EE866A43
:103AF00068EEA66AF5EEC07AF1EE10FA89ED026A78
:103B0000CBED026A0DD577EE887AF5EEC07AF1EE4C
:103B100010FAF8D4F4EEC87AF1EE10FA06DB77EE7C
:103B2000C87AF4EEC87AF1EE10FAF8DA9FEDE87A86
:103B3000F4EEC78AF1EE10FA00F1FE859FEDE57A0A
:103B4000F4EEC77AF1EE10FA88ED067A00F10A86F3
:103B50009FEDE15AD8ED004AF0EE005AA7EEA55AC3
:103B600078EE475A35EE477A27EE247AC7EE255A83
:103B70009FEDE95A99ED037AC8ED095AE8EE857A86
:103B8000B5EEC07AF1EE10FAC8ED037A08D537EE3B
:103B9000087AB5EEC07AF1EE10FAF8D489ED037A1E
:103BA000B4EEC87AF1EE10FA08DB37EE487AB4EEDC
:103BB000C87AF1EE10FAF8DA89ED037ADFEDC47A0B
:103BC000B4EEE76AF1EE10FA41F1B281DFEDC37AAB
:103BD0009FEDC35A66EE277AF4EEC57AF1EE10FA3D
:103BE00001F2A881F0EE457AB4EEE77AF1EE10FA30
:103BF00089ED065A01F1A681DFEDB74A99ED004A39
:103C0000B0EE005AE7EE054A38EE675A74EEE77AEE
:103C100067EE847A87EE855ADFEDBF4ADBED037AE3
:103C200089ED095AA6EE247AF5EEC07AF1EE10FA83
:103C300075EE855A89ED037A08D577EE887AF5EE28
:103C4000C07AF1EE10FAF8D4CBED037AF4EEC87A2C
:103C5000F1EE10FAFFF68EAC77EEC87AF4EEC87A81
:103C6000F1EE10FAF8DA83E498ED030AB4EEC80A2C
:103C7000F1EE10FA08DB30EE480AB4EEC80AF1EEB5
:103C800010FAF8DA88ED030A09F046F9D8ED037A5C
:103C900098ED026ADFEDA06A98ED007ADFED91AA57
:103CA000E6EE267A20EE070AC8ED037A88ED090AC7
:103CB00060EE2AAA6AE58C498C4ADFED8D6ADFED59
:103CC0008D5ADFED8D4A9FED945A012306EE103A8E
:103CD000B8EEC67A68EE877AF4EEE57AF1EE10FA7D
:103CE00029D5F2EC017AF4EEC87AF1EE10FA08DB8D
:103CF00077EEC87AF4EEC87AF1EE10FAF8DA42ED0F
:103D0000017A27EEA46A27EE057ABCEEC66ADFF8D0
:103D1000F0E116EE100AE8EE877A80B20EEB800032
:103D200090ED007AB1EC016A42ED017A01330B2B80
:103D3000E6EE076ACAD1714BD8ED007A93ED007AAE
:103D400066EE876A66EEA7AAC8ED09AA1EE5D8ED59
:103D5000037AF5EEC07AF1EE10FA08D577EE887A9C
:103D6000F5EEC07AF1EE10FAF8D4C8ED037AF4EE6D
:103D7000C87AF1EE10FA08DB77EEC87AF4EEC87A6A
:103D8000F1EE10FAF8DAC8ED037A9FED5B0AD8ED90
:103D9000008ADFED54AA27EE800A09F00BF8584993
:103DA000D8ED037A98ED026ADFED5B6A01EB8000E3
:103DB00090ED007AE6EE267A28EE877AC8ED037A4F
:103DC00088ED097A67EE2AAAE0E4D8ED037AF5EEE9
:103DD000C07AF1EE10FA0DD577EE887AF5EEC07A5A
:103DE000F1EE10FAF8D4F4EEC87AF1EE10FA06DB30
:103DF00077EEC87AF4EEC87AF1EE10FAF8DA9FEDB1
:103E0000347AF4EEC78AF1EE10FA00F1B9849FED2E
:103E1000317AF4EEC77AF1EE10FA88ED067A00F105
:103E2000C584DFED2D6AD8ED005AB0EE006AE7EEEA
:103E3000866A38EE476A36EEC77A27EE257A87EE2D
:103E4000067ADFED356ADFED27AA88ED097AE8EE1C
:103E5000A67A67EE2AAAC8ED037A97E498ED030ADA
:103E6000B5EEC00AF1EE10FA08D530EE080AB5EE4C
:103E7000C00AF1EE10FAF8D488ED030AB4EEC80ACD
:103E8000F1EE10FA08DB30EE480AB4EEC80AF1EEA3
:103E900010FAF8DA88ED030A09F03EF8D8ED00AA26
:103EA000D8ED037AD8ED026A9FED1B7A60EE2AAA5C
:103EB000E6EE877A60EE2AAAC8ED037A60EE2AAAB7
:103EC00060EE2AAA60EE2AAAC8ED09AA5EE400BF45
:103ED0000000FA45DB0F4940DB0FC9C02EE3CD39A6
:103EE00017B7D138CDCC4C3F04000010C03E0010B5
:103EF000000000000080BB4683F922430000001050
:103F0000E0F10008A43D0010CC3D00100000484343
:103F100000001644DB0F49401F4209395FED057A66
:103F2000F4EEE78AF1EE10FA01F15C825FED087AB7
:103F3000F4EEE78AD8ED037AF1EE10FAF5EEC07AE6
:103F400004D4D7E377EE887AF5EEC07AF1EE10FA72
:103F5000F8D4F4EEC87AF1EE10FA06DB77EEC87A00
:103F6000F4EEC87AF1EE10FAF8DA1FED167AD8ED11
:103F700000AAF4EEC77A87EE877AF1EE10FA4FBF07
:103F8000F6EE006AB0EE006AF6EE006A37EE467AA8
:103F90006AEEA6AA6AEE87AA1FED217AC8ED09AAE1
:103FA000E8EE877AC8ED037AFFF7F0BBBE498B6A6B
:103FB0005A1E002B8A623EF778AB91F82C30002B0A
:103FC00000F02287B94AD37A13B9537B002B3ED035
:103FD000DFF8EC92DFEDB6AA9FEDB6AADFEDB68A68
:103FE00004F0A0F9B549CA464FF07E508B461AEE50
:103FF000903A4AF8080BC9F80400AC484BF8083B63
:104000004FF0000EC1ED01AA80F80DE00BF056F85C
:1040100005EE100AF8EEC57AF0EE685A67EE897A76
:10402000A748EBEC01AAE7EE8A5A00F12C01EAEC72
:10403000015A99ED007A75EE877A8A45C9ED007AC2
:10404000E4D1B7EE007AC7EE277AC0ED007A974A3E
:10405000937BBBB10BF032F805EE100AB8EEC57ACF
:10406000DFED987A27EE097AB0EE690AA7EE270A03
:1040700008F0EAFEB5EE400AF1EE10FA4FF0000348
:1040800001F06D80DFF88CB233689BF81420F36187
:104090004FF07E51002373623362B161002A40F019
:1040A0004186894B0022CBF80C201A7D002A40F073
:1040B00042860022DA6085480378002B40F0428671
:1040C0007A48837A0246002B40F06586DFF848B2D2
:1040D0009BF80030012B00F08786022B00F0F08760
:1040E00071487B4B90F82C207A49825C03EB820369
:1040F00081461B680B600AF0E1FF05EE100AF8EE3E
:10410000C57A99F82C20D9F82430C9F8283067EE00
:10411000897AF0EE695A531CE7EEA95ADBB20F2BED
:104120006D4889F82C3088BF0023C0ED005A88BF45
:1041300089F82C30FEF7B9BA68486949B0EE680AC8
:1041400004F048FD67486849B0EE40AAB0EE680A3E
:1041500004F040FDF7EE007AB4EEE7AAF1EE10FAB3
:10416000F0EE408A3FF7BEABFFEE007AB4EEE7AA6E
:10417000F1EE10FA48BF48F201023FF5B5ABDFEDB2
:104180005B7A2AEE27AABDEECAAA1AEE102A92B2CC
:10419000FFF7AABBDFF88491554BDFF884B19FEDA0
:1041A000557A99ED000A93ED00AADBED007A20EE36
:1041B000070A3AEE67AA08F0FDFD4F494F4B99ED0B
:1041C000006AD3ED007A9BED007A4D4A4D4B01EB2E
:1041D0008000D0ED005A4C49F7EE006A75EEA65A01
:1041E000F6EE006A76EE277A65EEA66AF4EEC87AF5
:1041F000AAEE267AF1EE10FAA8BF77EEC87AB7EEEB
:10420000004AC9ED007A74EE477A37EE047AD2EDAF
:10421000006AC7EE877A93ED007A3C4BC1ED007AD5
:10422000B0EE683AA6EE873A3949D3ED004A93EDED
:10423000015AD3ED025A93ED036AD3ED046A93ED6C
:10424000057AD1ED003AE3EE674A34EE634AA4EE14
:10425000E75AA7EEA43AE5EE675AE7EE854AA5EEDF
:10426000E76AA7EEA55AE6EE676AE7EE865AA6EE7B
:10427000E77AA7EEA66A63EE873AE7EE876AE8EE8A
:10428000843A83ED003AF0EE638AC3ED014A83ED90
:10429000025AC3ED035A83ED046AC3ED056A82ED49
:1042A000007AFFF710BB00BFC0100010F410001020
:1042B00000000000BF9F7A3F6F12833ABC3E00109F
:1042C000000000109A99193F6C3E00103510001044
:1042D000EC910108E83E0010301000102C11001085
:1042E0001C3D0010242700102C3D001000FEFF464E
:1042F000FC04002083F92243E0F10008A40500201B
:104300006CE90120F804002064E901204CE9012057
:10431000AC050020443E00103610001044E9012096
:1043200088050020D44BD54993ED007ADFEDD47A8F
:10433000D1F800C0DFEDD36A9CED006AD24A27EEC7
:10434000277AD2ED007AA6EE267AB0EE685AA7EE6A
:10435000275AF7EE006AB4EEE65AF1EE10FAF0EEE4
:10436000457A83ED007A40F34781F0EE667AC748DC
:10437000C74A0368DFF81C93E3EC017AC2EB030B36
:10438000CB4503600CF1040CC8BF0260C148C1F802
:1043900000C0C2EB0C038342BF4BC8BF0A6093ED61
:1043A000007AF7EE006A76EEC76A68EEA68AE7EE54
:1043B000878AFFF783BAFFEE007AF4EEE78AF1EE20
:1043C00010FA48BF48F201033FF598AADFEDB37A2F
:1043D00068EEA78AFDEEE88A18EE903A9BB2FFF7E6
:1043E0008DBA93ED017AD3ED027A78EEC78AF4EEB6
:1043F000E78AF1EE10FAC3ED048A3FF6D7A900214F
:104400000222C3ED047AF0EE678AD9611A62FFF7DF
:10441000CDB993ED077AD3ED067A78EE878AF4EE7C
:10442000E78AF1EE10FAC3ED048AFFF6BFA95A68D5
:104430009968DA610122C3ED047AF0EE678A996126
:104440001A62FFF7B3B9D3ED037A9FEDA37A78EE42
:10445000E78AF4EEC78AF1EE10FA40F2C580C3EDA8
:10446000048AFFF7A3B90022CB688A61CB610022DE
:1044700003234A620B62FFF7F1B9D9ED037AF5EE37
:10448000C07AF1EE10FA08D577EE887AF5EEC07AA8
:10449000F1EE10FAF8D4C9ED037AF4EEC87AF1EE31
:1044A00010FA08DB77EEC87AF4EEC87AF1EE10FA6B
:1044B000F8DAC9ED037A9FED7A0A27EE800A08F050
:1044C00079FC7849D9ED037A99ED024ADFED764A15
:1044D000764BDFED775A93ED005A01EB800090EDBB
:1044E000007AF7EE006AB6EE006AE4EE247A37EE60
:1044F000267A68EE868AC9ED037A28EE877A77EE07
:10450000267A89ED097A67EE857AF4EEE57AF1EE9E
:1045100010FA7BDDDFED677A9FED676A674B83ED0D
:10452000016AC3ED027AFFF7B2B9DBED037AF5EE6B
:10453000C07AF1EE10FA08D577EE887AF5EEC07AF7
:10454000F1EE10FAF8D4CBED037AF4EEC87AF1EE7E
:1045500010FA08DB77EEC87AF4EEC87AF1EE10FABA
:10456000F8DACBED037A9FED4E0A27EE800A08F0C9
:1045700021FC4C49DBED037A9BED024ADFED4A4A10
:104580004F4BDFED4B5A93ED005A01EB800090ED5D
:10459000007AF7EE006AB6EE006AE4EE247A37EEAF
:1045A000267A68EE868ACBED037A28EE877A77EE54
:1045B000267A8BED097A67EE857AF4EEE57AF1EEEC
:1045C00010FA3EDDDFED3B7A9FED3B6ADFF8F8E065
:1045D0003C4B9EF8002083ED016AC3ED027A002A6D
:1045E0003FF44BA9FFF753B90422F0EE478A83ED5D
:1045F000047A1A62FFF7DAB8BFEE007AB4EE475ACF
:10460000F1EE10FA48BFF0EE477AB0E627EE866A80
:10461000DFED2E7A66EE277AF9EE046A77EEA75A76
:1046200027EEA77AE7EEA56A27EE877AFAEE0E5A0A
:10463000A7EEA57AF0EE087A66EEA77AC7EE277A9B
:104640006CE727EE866ADFED217A66EE277AF9EECF
:10465000046A77EEA75A27EEA77AE7EEA56A27EE57
:10466000877AFAEE0E5AA7EEA57AF0EE087A66EE91
:10467000A77AC7EE277AA9E768E901208405002018
:104680009A99193FCCCCCC3E80000020A805002090
:10469000B8070020BFD401007C00002000FEFF46C8
:1046A00083F92243E0F100081F4209398C050020FC
:1046B0003333733F03123A413333F33E5C3D001012
:1046C000A00500203C3D001035100010DB0F4940D4
:1046D00083F9223F00803B4700000000ACC527372C
:1046E0002EE3CD3917B7D1380080BB4677EE887AF4
:1046F000F5EEC07AF1EE10FAF8D4F4EEC87AF1EEE5
:1047000010FA06DB77EEC87AF4EEC87AF1EE10FA0A
:10471000F8DA1FED127AF4EEC77AF1EE10FA00F132
:1047200095865FED156AD8ED00AAB8EE087AA7EE77
:10473000A67A67EE2AAA2FE41FED177A5FED175AC3
:1047400028EE877AB4EEE57AF1EE10FA3FF6F8A992
:10475000B0EE657AF4EEC77AF1EE10FAC8ED065ABB
:104760007FF5F6A9F8EE005A85EE877AF7EE005A43
:10477000E7EE875A98ED007A65EE875AFFF7F8B9A9
:104780001FED297A5FED296A28EE877AB4EEE67A82
:10479000F1EE10FA3FF63DABB0EE667AF4EEC77A72
:1047A000F1EE10FAC8ED066A7FF53BABF8EE006A51
:1047B00086EE877AF7EE006AE7EE876A98ED007A70
:1047C00026EE877AFFF73DBB1FED3E6A5FED3D7A2F
:1047D00088EE866AB4EEE76AF1EE10FA00F14C85D5
:1047E000F6EE006AB4EEE66AF1EE10FAC8BFF0EE3B
:1047F000667A41F30784D9ED045A1FED485AB7EEA3
:10480000007A35EE877AB6EE00AA27EE0A7A4FF0E4
:10481000000CB4EEE77AF1EE10FA54BFF0EE475A0E
:10482000F0EE675AF4EE665AF1EE10FAB4EEC56A8D
:10483000C8BFF0EE665AF1EE10FA25EE8AAA89F8A2
:1048400054C57EF5DCACB0EE456AFEF7E1BC1FED69
:104850005F7A5FED5E7AC8EE878AF4EEE78AF1EE62
:1048600010FA00F17385F6EE006AF4EEE68AF1EED6
:1048700010FAC8BFF0EE667A41F3BC8399ED046A82
:104880005FED6A5A5FED6CBAB7EE007A36EE077AE2
:10489000F6EE00CA27EE2C7A4FF0000CB4EEE77A61
:1048A000F1EE10FA54BFB0EE476AB0EE676AB4EEAC
:1048B000666AF1EE10FAF4EEE58AC8BFB0EE666AF9
:1048C000F1EE10FA89F858C57FF557A8F0EE658A21
:1048D000FFF75CB8C8EE878A5FED807AF4EEE78A6E
:1048E000F1EE10FA40F12185002389F84835F6EE03
:1048F000006A1FED867AF4EEC78AF1EE10FA7DF5B4
:1049000050AFF0EE478AFDF755BF1FED8B7A1FEDD4
:104910008B5A25EE877AB4EEC57AF1EE10FA3EF6A0
:10492000F5A9B0EE457AF4EEC77AF1EE10FA83ED10
:10493000065A7EF5F3A9B8EE005A85EE077AB7EE6F
:10494000005AA7EE875A98ED007A25EE075AFEF72F
:10495000F5B95FED9D7A1FED9D6A68EEA77AF4EEDA
:10496000C67AF1EE10FA3EF66EAEF0EE467AB4EE8E
:10497000E77AF1EE10FA88ED066A7EF56CAEB8EED5
:10498000006AC6EE277AB7EE006AA7EE276AD8ED6E
:10499000007A26EE276AFEF76EBE1FEDAF7A5FED56
:1049A000AF5A28EE877AB4EEE57AF1EE10FA3EF6C9
:1049B0004DADB0EE657AF4EEC77AF1EE10FAC8EDBF
:1049C000065A7EF54BADF8EE005A85EE877AF7EE83
:1049D000005AE7EE875A98ED007A65EE875AFEF79F
:1049E0004DBD1FEDC17A5FEDC15A26EE077AB4EED8
:1049F000E57AF1EE10FA3EF6EAAAB0EE657AF4EE48
:104A0000C77AF1EE10FAC3ED065A7EF5E8AAF8EE81
:104A1000005A85EE877AF7EE005AE7EE875A98ED4E
:104A2000007A65EE875AFEF7EABA5FEDD17A9BED20
:104A300000AADBED01AADBF82020CBF81C2087EED2
:104A40008AAA0023CBF81830C7EEAAAA8BED03AAD6
:104A5000CBED04AA0AF032FB05EE100AF8EEC57A97
:104A60007AEECAAA67EE897AA7EEAAAABCEECAAA0B
:104A70008BED05AA0AF022FB05EE900AF8EEE56A36
:104A8000F0EE007A66EE896ABFEE007AA6EEA77AAB
:104A90009BED076A9BED055A8BED087A37EE467A57
:104AA000B8EE456ADBED0A7AD9ED026A87EE067A3E
:104AB0008BED097AFEF75ABA5FEDF57AD9ED008AE7
:104AC00099ED01AAD9F82020C9F81C20C7EEA88AC0
:104AD0000023C9F8183087EE8AAAC9ED038A89ED48
:104AE00004AA02910AF0EAFA05EE100AF8EEC57A75
:104AF0003AEE68AA67EE897AE7EE8A8AFCEEE88ADF
:104B0000C9ED058A0AF0DAFA05EE900AF8EEE56AD0
:104B1000B0EE007A66EE896AFFEE007AE6EE877AFA
:104B2000029999ED077A99ED056AC9ED087AF8EED0
:104B3000466A77EEC77AD1ED005A99ED0A7AC7EE48
:104B4000A67AC9ED097AFEF786B8DFEDE77ADBEDE4
:104B5000008A9BED01AADBF82020CBF81C20C7EED1
:104B6000A88A0023CBF8183087EE8AAACBED038AF7
:104B70008BED04AA02910AF0A1FA05EE100AF8EEF4
:104B8000C57A3AEE68AA67EE897AE7EE8A8AFCEE81
:104B9000E88ACBED058A0AF091FA05EE900AF8EE64
:104BA000E56AF0EE007A66EE896ABFEE007AA6EE5C
:104BB000A77A02999BED076A9BED055A8BED087A5F
:104BC00037EE467AB8EE456AD1ED005ADBED0A7A47
:104BD000D9ED026A87EE067A8BED097AFEF763B8A3
:104BE000DFEDC17A99ED00AAD9ED01AAD9F820200C
:104BF000C9F81C2087EE8AAA0023C9F81830C7EE2E
:104C0000AAAA89ED03AAC9ED04AA0AF057FA05EE8B
:104C1000100AF8EEC57A7AEECAAA67EE897AA7EE8C
:104C2000AAAABCEECAAA89ED05AA0AF047FA05EEBF
:104C3000900AF8EEE56AB0EE007A66EE896AFFEE59
:104C4000007AE6EE877A99ED056AD9ED076AC9ED33
:104C5000087A77EEE67AF8EE466A99ED0A7AC7EEB8
:104C6000A67AC9ED097AFEF75BB9DFED9F7AD9ED37
:104C7000008A99ED01AAD9F82020C9F81C20C7EEB6
:104C8000A88A0023C9F8183087EE8AAAC9ED038ADA
:104C900089ED04AA0AF012FA05EE100AF8EEC57AB8
:104CA0003AEE68AA67EE897AE7EE8A8AFCEEE88A2D
:104CB000C9ED058A0AF002FA05EE900AF8EEE56AF7
:104CC000F0EE007A66EE896ABFEE007AA6EEA77A69
:104CD00099ED056AD9ED076A89ED087A37EE667AAB
:104CE000F8EE466AD9ED0A7A87EE267A89ED097AD6
:104CF000FDF788BF9FED8C7AF4EEC77AF1EE10FADB
:104D00008BED067A7EF554ACB8EE006A86EE077A33
:104D1000B7EE006AA7EE876A9BED007A26EE077A67
:104D2000FEF756BC714BDBF81020CBF80C201A7D37
:104D3000002A3FF4BEA96E481A69DA600378002B96
:104D40003FF4BEA90AF0BAF905EE100ADFED690AD0
:104D50009FED690AF8EEC57AE7EE890A08F01AF9BC
:104D60009FED667ADFED667A20EE070AB4EEE70A79
:104D7000F1EE10FA40F37F83DFED627A9FED627A05
:104D8000624B634883ED017AC3ED027A837A02466F
:104D9000002B3FF49BA9407A5E4918445BB25072E5
:104DA0001FFA83FE01F1110011F8013B73449BB21D
:104DB0001AB26A2A04DD0C3B9BB21AB26A2AFADCE8
:104DC000002A03DA0C339BB21A04FBD4814201F8A7
:104DD000013CE9D14E49DFF84CB100238B729BF8BE
:104DE0000030012B7FF479A90AF068F94A4B03409F
:104DF000002BC1F22D80032B01F22680DFE813F097
:104E00001B08D807CF07C807444B1B78002B3FF47B
:104E1000D9A8434B1B78002B7FF4D4A804F08AFB5D
:104E200005F018FAFFF7CEB89FED3F7AF4EEC77A97
:104E3000F1EE10FA8BED067A7EF51AA8F8EE006A0C
:104E400086EE877AF7EE006AE7EE876A9BED007AD6
:104E500026EE877AFEF71CB89FED337AF4EEC77A18
:104E6000F1EE10FA8BED067A7EF563A9F8EE006A92
:104E700086EE877AF7EE006AE7EE876A9BED007AA6
:104E800026EE877AFEF765B9DFED277AB4EEE77A8A
:104E9000F1EE10FAC9ED067A7DF594AFF8EE005AFE
:104EA000C5EEA77AF7EE005AE7EE275AD9ED007A59
:104EB00065EEA75AFDF796BFDFED1B7AB4EEE77AF1
:104EC000F1EE10FAC9ED067A7EF51CABB8EE005A89
:104ED000C5EE277AB7EE005AA7EE275AD9ED007A29
:104EE00025EE275AFEF71EBB0080BB466C3E001025
:104EF000351000100000000055550541CDCC4C3C4C
:104F00003333733F03123A413333F33E3C3D0010D9
:104F1000F4100010C01000100300008020000020DA
:104F200048E9012036100010DB0F494000008042A4
:104F30005FED037AB4EEE77AF1EE10FAC9ED067A86
:104F40007EF55AAEB8EE005AC5EE277AB7EE005A93
:104F5000A7EE275AD9ED007A25EE275AFEF75CBE58
:104F60001FED0F7AF4EEC77AF1EE10FA89ED067AAA
:104F70007EF5C5ABF8EE005A85EE877AF7EE005A5B
:104F8000E7EE875A99ED007A25EE877AFEF7C7BBE0
:104F90005FED1B7AB4EEE77AF1EE10FAC9ED067A0E
:104FA0007EF571A8B8EE006AC6EE277AB7EE006A01
:104FB000A7EE276AD9ED007A26EE276AFEF773B8C6
:104FC000BCF1000F40F01481F4EECA8AF1EE10FA41
:104FD00040F282868AEE28DA6346F6EE007A3DEEEB
:104FE00067DAF7EE007AB4EEE7AAF1EE10FA80F293
:104FF00071830022F0EE4ABA9C46C9F818200AE1F3
:10500000BCF1000F40F0B480B4EEEBCAF1EE10FA40
:1050100040F218866346B7EE00BAF4EECBBAF1EE72
:1050200010FA80F212830022B0EE6BBA9C46C9F8E7
:105030001820AAE0F7EE00BAF4EEEB6AF1EE10FAEF
:10504000C0F29D8176EEEBBA5FED488AD34BDFF874
:1050500078B36BEEA88ACBEE8B7AC8EE8B8A37EEEC
:10506000877AB6EE000A38EEC00A89ED057A029119
:10507000019307F09FFE06EE100AF8EEC66A029949
:10508000019B00F03F0078EEE66A0BEBC00B8A0054
:105090009BED017ADBED007AE6EE877A03EB020EF8
:1050A00040309EED007A77EE277AB0F5905F0BF5F1
:1050B000007B02F10402CEED007AE9DBFDF703BCD0
:1050C00009F0FCFFB64B0340002BC0F2CF81DBB2EE
:1050D000A3F10A01C9B2B34A0129137040F2C28197
:1050E000042B7EF4FDAFDFEDB0AADFF8CC92AF4B1E
:1050F0009FEDAFAAC3ED01AA1AEE90EACB464FF09E
:105100007E5143F808EBDFEDAB8A4BF8081B0497A0
:10511000C9F8041009F12C0A1F4609F0CFFF05EE6B
:10512000100AF8EEC57AF0EE685A67EE897AE7EC75
:1051300001AAE7EE8A5AA049EBEC015A99ED007AF0
:1051400075EE877AD345C9ED007AE6D1B7EE007ADD
:10515000C7EE277A049FC1ED007AFEF7C1BFF16860
:10516000B36100220323F16172623362FEF7A3BFD1
:10517000B7EE00BAF4EECBBAF1EE10FA80F2318459
:105180000023B0EE6BBAC9F8183001F1100309EB37
:105190008303D3ED007AD9ED01AADFF830B277EEC0
:1051A000AC7AF0EE4ABAC3ED007A09EB8103D3ED95
:1051B0000C7A37EECAAAF6EE007AEAEE27BA013187
:1051C000B1F5807F6BEEAAAAC9ED00AA00F0848138
:1051D00089ED07BAC9ED088A89ED09CAC9ED0ACA7D
:1051E000C9ED0BBAC9F85015C9F854C5FEF7CEBAC7
:1051F000B4EEE7AAF1EE10FA80F2C0827AEE687A95
:10520000B6EE00DAC7EEACCA0023C9F81830F0EEEB
:105210004ABA3DEE6CDA01F10E0309EB830393ED1C
:10522000017AD9ED017ADFF8A8B137EE0DDAB0EEE8
:105230006ACA83ED01DA09EB810393ED0B7A77EE0D
:105240006AAAB6EE007AAAEE87CA0131B1F5807F6C
:105250006CEE27AAC9ED00AA00F05581C9ED07BA86
:1052600089ED08BAC9ED098A89ED0ACAC9F84C1551
:10527000C9F850C5FEF78ABADFED506AFFF7BBBA2E
:10528000B4EEE7AAF1EE10FA80F2568387EEA8DAC0
:10529000DFF840B14A4B4FEA810A3AEE687AC7EE2E
:1052A000AC7A87EE2C7A3DEE27DAF6EE00DA7DEE68
:1052B000C7DA2BEE0DDA9FED4AEA02912BEE8EEA69
:1052C000B6EE00AA8EEE0BEA01933EEE4AAAB0EECD
:1052D0004A0A07F06FFD07EE100AF8EEC76A00F001
:1052E0003F00421C7EEE666A0299019B0BEB820B2B
:1052F00052465BED017A9BED007A37EE677A03EB5D
:10530000020EE6EE877A4030B0F58E5F0BF5807BBB
:10531000B0EE677ADEED007AEDEE077A02F1040274
:10532000CEED007AE5DBFEF70AB8F6EE007AF4EE91
:10533000E78AF1EE10FA4FF00003D8BFF0EE687A7A
:1053400089F84835F6EE006AFFF7D3BADFED1B6A3D
:10535000FFF794BAB4EEEBCAF1EE10FA40F2F7831D
:10536000F7EE007AF4EEE7BAF1EE10FAFEF678AB5B
:10537000DFF854B0134B4FEA810A00F02ABC002337
:10538000F0EE66BAC9F81430FDF79DBADFF838B010
:10539000024B4FEA810AFDF763BA00BF50000010CC
:1053A0000F0000803410001000000000BC3E001010
:1053B000BF9F7A3F6F12833A0000001058FF7F3F73
:1053C000000B0010A8050010E4010108780500108A
:1053D000D40A00109893010883F922BFDB0F4940DB
:1053E00000008042D8ED037AF5EEC07AF1EE10FAB3
:1053F0000DD577EE887AF5EEC07AF1EE10FAF8D492
:10540000F4EEC87AF1EE10FA06DB77EEC87AF4EE25
:10541000C87AF1EE10FAF8DA1FED107AF4EEC77AD6
:10542000F1EE10FA87EE877A00F1A684F0EE006ABA
:1054300037EE667A98ED006A27EE066AFEEE006A9D
:1054400027EE067A67EE26AAFEF7A6BD5FED1E6A76
:10545000D8ED00AAB7EE007AA7EEA67A67EE2AAAE0
:10546000FEF79ABD0C231370FEF73ABE013B63F0C2
:105470000F0301332BE6B6EE007A20EE077A5FEDDC
:10548000297A67EE277AB9EE046A77EEA75A67EEB3
:10549000A76AA7EEA56A67EEA66AFAEE0E5AE7EECD
:1054A000A56AF0EE087A66EE277AC6EEA77A67E478
:1054B0000BF224414FF490720BF1240009F012FD1D
:1054C00000210BF5A2704FF4806209F0A5FDDBED21
:1054D00000AA0021FDF71CBA0BF586614FF490720B
:1054E0000BF13000CDF80CC009F0FCFC00210BF5ED
:1054F000A8704FF4806209F08FFDDBED00AADDF8A3
:105500000CC0002164E60BF22C414FF490720BF1B9
:105510002C00CDF80CC009F0E5FC00210BF5A670BD
:105520004FF4806209F078FDDBED00AADDF80CC0D5
:10553000002193E67BEEE87A1FED57AA029127EE51
:105540008AAAFFEE006A8AEE0BAA0193DFF8DCB3A9
:10555000B7EE007A87EEACDA87EE287AC6EEACCAF0
:10556000F6EE007A3AEE670A7CEEC7CA37EECDDA7D
:1055700007F020FC05EE100AF8EEC56A00F03F00C7
:1055800000F1010E2BEE2C6A7AEE666A0299019BFD
:1055900052460BEB8E0B5BED017A9BED007A37EEFA
:1055A000677A03EB020EE6EE877A4030B0F58E5F45
:1055B0000BF5807BB0EE677ADEED007AE6EE077AD7
:1055C00002F10402CEED007AE5DB4FF0010CFDF7AD
:1055D000F3BEDFEDD87AD24B02917BEE4CBAB6EE39
:1055E000000A6BEEA7BA0193CBEEA8BADFF840B37E
:1055F0003BEEC00A07F0DEFB06EE100AF8EEC66AC4
:105600000299019B00F03F007BEEE66A0BEBC00BBA
:105610008A009BED017ADBED007AE6EE877A03EBF8
:10562000020E40309EED007A77EE677AB0F5905F1B
:105630000BF5007B02F10402CEED007AE9DBFEEE11
:1056400000CA4FF0010CFEF713BA3BEECBBADFED08
:10565000B9AADFEDB47AB24BDFF8D4B26BEE2AAA66
:105660008BEE287ACAEEA8AA77EE277AB6EE000A61
:105670003AEEC00AC9ED067A02910193CDF80CC04A
:1056800007F098FB07EE900AF8EEE76A0299DDF85A
:105690000CC0019B00F03F007AEEE66A0BEBC00BFA
:1056A0008A009BED017ADBED007AE6EE877A03EB68
:1056B000020E40309EED007A77EE277AB0F5905FCB
:1056C0000BF5007B02F10402CEED007AE9DBF6EE89
:1056D00000CA5AE57AEE67BA9FED96AADFED916AA5
:1056E000914BDFF848B22BEE8AAA8BEE8B6A8AEEDA
:1056F0000BAAC7EEACCA8BEEA8DAC7EEA87A76EE94
:10570000266AB6EE007A3AEE470AC9ED066A37EE27
:10571000ACCA02910193CDF80CC03DEE47DA07F018
:1057200049FB06EE100AF8EEC66A00F03F00029947
:10573000DDF80CC0019B421C2BEE0C6A7AEE666A07
:105740000BEB820B8A005BED017A9BED007A37EE62
:10575000677A03EB020EE6EE877A4030B0F58E5F93
:105760000BF5807BB0EE677ADEED007AE6EE077A25
:1057700002F10402CEED007AE5DB4CE57AEE67BA81
:105780009FED6CCA684BDFF8A4B12BEE8CCACBEE50
:105790008B6A4FEA810A8CEE0BCA87EEA8AAC7EE85
:1057A000AC7A36EE877AB6EE000A3CEE400A89ED16
:1057B000067A3AEE27DA0291019307F0FBFA07EE38
:1057C000100AF8EEC76A00F03F00421C2BEE0D6A8B
:1057D0007CEE666A0299019B0BEB8202D64652ED83
:1057E000017A92ED007A37EE677A03EB0E0CE6EE63
:1057F000877A4030B0F58E5F02F58072B0EE677A3E
:10580000DCED007AE6EE077A0EF1040ECCED007ABC
:10581000E5DBF4EEEB8AF1EE10FA40F21F838BEE3B
:10582000A8DA4FF0000CF6EE007A3DEE67DAF2E40B
:105830007BEEE7BADFED3F7A394B02917BEE2BCA64
:10584000B6EE000A6CEEA7CA4FEA810ACCEEA8CAEF
:105850000193DFF8DCB03CEEC00A07F0ABFA07EECC
:10586000100AF8EEC76A00F03F007CEEE66A029983
:10587000019B0BEBC002D64692ED017AD2ED007A85
:10588000E6EE877A03EB0E0C40309CED007A77EE63
:10589000277AB0F5905F02F500720EF1040ECCEDA0
:1058A000007AE9DBB4EEEBCAF1EE10FA3EF6D6A8C8
:1058B0007BEECCBADFED1F7A02917BEE2BBAB6EE0F
:1058C000000A6BEEA7BA0193CBEEA8BA3BEEC00A72
:1058D00007F070FA05EE100AF8EEC57A00F03F0006
:1058E0007BEEE7BA0299019B0BEBC002D64692ED24
:1058F000017AD2ED007AEBEE877A03EB0E0C4030A2
:105900009CED007A77EE677AB0F5905F02F5007251
:105910000EF1040ECCED007AE9DBFEF76EB800BFA5
:10592000A805001008E53C1E000B00109893010824
:10593000E4010108000080427AEE67DA1FED037A85
:10594000E04B02913BEEADEA87EEA8AA4FEA810A4E
:105950000193DFF878B32EEE07EAC7EEAC7A8EEE4D
:105960000BEAB6EE000A3EEE400A3AEE27DA07F0FE
:1059700021FA06EE100AF8EEC66A00F03F00421C5B
:105980002BEE0DDA7EEE666A0299019B0BEB82022A
:10599000D64652ED017A92ED007A37EE677A03EB44
:1059A0000E0CE6EE877A4030B0F58E5F02F580721D
:1059B000B0EE677ADCED007AEDEE077A0EF1040EB8
:1059C000CCED007AE5DBF4EEED8AF1EE10FA40F270
:1059D000C782CDEEA8DAF6EE007A7DEEE7DAFDF7C3
:1059E000A4BC3BEECBBADFEDBBAAB74BDFF8E0B20D
:1059F0006BEE2AAA8BEE287A4FEA810ACAEEA8AA91
:105A000077EE277AB6EE000A3AEEC00AC9ED067ABA
:105A10000291019307F0CEF905EE100AF8EEC56A7F
:105A200000F03F007AEEE66A0299019B0BEBC002A0
:105A3000D64692ED017AD2ED007AE6EE877A03EB54
:105A40000E0C40309CED007A77EE277AB0F5905F2F
:105A500002F500720EF1040ECCED007AE9DBB4EE33
:105A6000CBCAF1EE10FA40F24282F6EE00CA4FF0D5
:105A7000000CFFF78ABB9FED97EA924B2BEE8EEA64
:105A80004FEA810A8EEE0BEA3EEE47AAFDF757BCBD
:105A90003AEE687ADFED8F6A8A4B02913BEE87DA45
:105AA000BFEE00EA2DEE26DAC7EEA87A4FEA810AA9
:105AB0000193DFF818B28DEE0BDAC7EE2CDA8EEE1A
:105AC0002CEAB6EE007A3DEE470A3EEE67EA77EE44
:105AD0006DDA07F06FF905EE100AF8EEC56A00F00E
